:020000040000FA
:020000002D28A9
:100008007E1480312100901E0A280B281928200010
:10001800901E0F28102819288231C1228031823180
:1000280003228031FD01FD0A2B282100101C1D2808
:100038001E282A282000101C222823282A28833139
:100048000B2380312000B901B90A2B282A287E10F9
:1000580009002E28833115238031C20083311623ED
:100068008031C300833117238031C400FA01FB01BA
:10007800FC01FD0120308400003085001A308231F7
:10008800F92280317E102000682A2000A901AA01E7
:100098008C30BA000A30BB008C30C2000A30C30072
:1000A8008C30BC000A30BD0021000E1623000E1251
:1000B8007C08031D60286128A728F401F501A030F9
:1000C800890B642800308031C02080310130F4076A
:1000D8000030F53D13307502883003197402031C93
:1000E8007628772863280530F3000F30F200F130C6
:1000F800890B7C28F20B7C28F30B7C280000F60186
:10010800F7013530890B8628000001308031C02086
:1001180080310130F6070030F73D27307702103084
:1001280003197602031C99289A2885280530F300BC
:100138000F30F200F130890B9F28F20B9F28F30B48
:100148009F280000BF28F801F901C0300032890B50
:10015800AA2800308031C02080310130F8070030F3
:10016800F93D0F307902A03003197802031CBD282D
:10017800BE28A9289A280800CB2801302000C402EC
:1001880013290130F00070082000C40713297C08E7
:10019800031DCF28D028C128C52822008E100E1094
:1001A8008E110C128C160E157C03031DDC28DD281D
:1001B800E3280730F00070082000C4002F292F29F9
:1001C80022008E100E100C128C128E150E152F296F
:1001D80022008E100C128C120E118E150E142F295F
:1001E80022000C128C120E118E118E140E142F294F
:1001F80022008E118C120E110E108E140C162F293F
:1002080022000E108E110E118E108C160C167C0802
:10021800031D0F2910292F292000C4012F29440864
:10022800F000F1017108003A03191B292F29700801
:10023800013A0319D128033A0319E428013A0319AA
:10024800EC28073A0319F428013A0319FC28033A61
:10025800031904292F29080001302000A9070030BC
:10026800AA3D0130AB070030AC3D00307B020930BD
:1002780003197A02031C41294229642900307B02B0
:100288000C3003197A0203184A294B2964292200E1
:100298008E100E108E110C128C120E112000A90156
:1002A800AA01AB01AC018C30BA000A30BB008C301B
:1002B800C2000A30C3008C30BC000A30BD0093294C
:1002C80000307B020C3003197A02031C6C296D295B
:1002D80077297C03031D712972297F29FC0180314C
:1002E800492081317F297C08031D7B297C297F29AE
:1002F800FC01FC0A732920003B082A02031D8629F9
:100308003A082902031C89298A299329A901AA01E3
:100318008131D02181317C088031C02081310800B1
:10032800F501F6017008710403199B299C29CB2952
:10033800F701F70AA8290130F035F10D890BA0293A
:100348000130F4007408F707F11FAB29AC299F2985
:100358000130F535F60D890BAD2971087302031DBF
:10036800B72970087202031CBA29BB29C029700872
:10037800F2027108F33B75140130F136F00C890B69
:10038800C1290130F702031DCA29CB29AC297608F7
:10039800F1007508F000080000307B020B300319EB
:1003A8007A02031CD829D929F3297A08F63E2000B5
:1003B800C200FF307B3DC3004308F1004208F00053
:1003C8003830F200FF30F300823149228131700861
:1003D8008C3E2000C2000A30713DC300FE290A305D
:1003E800F6007A0876022000C2007B090318890A01
:1003F800C300E0294308BB004208BA0008002000F7
:100408000E1E072A082A162A00303402143003194F
:1004180033020318102A112A162A0130B3070030B4
:10042800B43D262A3308340403191B2A1C2A262A19
:100438000E1A1F2A202A262A3408FB003308FA003D
:10044800B301B401080022008C018E01053021009F
:100458008C0030308E0023008E0110308C00240078
:100468008C0101308E00013025008C008E01373060
:1004780026008C003F308E003F3027008C003F3034
:100488008E0002303C0090000800F401F501701C59
:100498004E2A4F2A532A7208F4077308F53D013093
:1004A800F235F30D890B542A0130F136F00C890B23
:1004B800592A70087104031D622A632A4B2A750899
:1004C800F1007408F00008008231AE2282318B17E7
:1004D8000B1780314920823120003903031D752A0A
:1004E800762A7A2AB9018231862282317D03031D58
:1004F8007E2A7F2A702AFD018131302182316400F1
:10050800702A2D280330F0000030F10020002C085C
:10051800F3002B08F2008131942182317108200008
:10052800BD007008BC00AB01AC01080062302000BF
:1005380098004F30960095019012210090161830BF
:10054800F0000330F1008231FF2282318430200034
:10055800970008008231E9228231823127228231D4
:100568008231F12282318331112382318231CF22CB
:10057800823182319A22823108002000901240088C
:1005880041040319C82AC92ACE2A41088A0040080A
:100598000A0082310800200010100B141930F000F6
:1005A8000330F10083310523823121001014080043
:1005B80020003E083F040319E22AE32AE82A3F08FC
:1005C8008A003E080A008231080032009101920137
:1005D80093019401950196010800320099019B014D
:1005E8009D0107309F009E010800640080010131D1
:1005F800890BFA2A003471082000C1007008C00075
:10060800080071082000BF007008BE000800200024
:1006180010108231DC228331080018302100970045
:0C0628000800E734033403340800080025
:020000040001F9
:08000E008C3FFB3FFF3FFF3F69
:00000001FF
